:020000040000FA
:080000000528000000000000CB
:02000800D029FD
:06000A001828820756349D
:1000100031342E34303430342034323430343134CE
:1000200035342F34303432342F34313436340034D4
:10003000640022222B22640080308A008B17043057
:10004000A300FA30FD007414292874182428A30B87
:100050002128081515080811C03903193928081571
:100060000F30950508110130BB21081595160811B0
:100070002928F51F29287A185128FA18A0287A1952
:10008000CF28FA190A2988017908FC00F501FA013C
:10009000081595120811FA30BB210815951608119C
:1000A00029289E21F5185A28A621031C52287B14C2
:1000B000103043289E210815141A6428A621031C19
:1000C0005B287B141130432888017030F5057908CE
:1000D000C00043219E21F51B7328A621031C6B2819
:1000E0007B141130432800009E210815141A99280A
:1000F000081175188128A621031C75287B1412305D
:1001000043284108F900C42175109E210815141ACE
:1001100099280811751C9228A621031C86287B1497
:10012000133043280815003091001516081175107A
:10013000862808117B12FC017030F5057A104129E0
:100140009E21F518A928A621031CA1287B14203084
:1001500043287908C000F5109E21F518B528A6217E
:10016000031CAD287B14213043287908C100F51009
:1001700068219E210815141AC8280811F51CC628E4
:10018000A621031CBA287B1422304328F510B92875
:1001900008117B12FC017030F505FA1041299E21EF
:1001A000F51BD828A621031CD028FB143030432887
:1001B000A2019E217518E228A621031CDA28FB154E
:1001C000313043280A08A00080308A002208062027
:1001D000F90020088A0079080319F228C421751053
:1001E000A20AD9289E210815141A03290811751886
:1001F000FF28A621031CF328FB1532304328F90100
:10020000C4217510F2280811FB10FC017030F505AF
:100210007A1141299E21F51B1329A621031C0B29C4
:10022000FB154030432885017B3084009E217518E2
:100230001F29A621031C1729FB154130432800085C
:10024000F900C42180017510840A04087D3A031D59
:1002500016299E210815141A3B29081175183629EC
:10026000A621031C2A297B1542304328FF30F900C0
:10027000C421751029290811FB117030F505FA11F8
:10028000412988012928C0130830A5008E15B52101
:100290008E12B5210310C00D03188E15031C8E118C
:1002A000B5210E12B5210E16B521A50B4A29C101A3
:1002B0000830A5000E12B5210E16B52103140E1933
:1002C0000310C10DA50B5A298E16B5210310080085
:1002D00001304006031975290230400603197529BB
:1002E0000730400603197529772903140800C01741
:1002F0000830A5008E15B5218E12B5210310C00D52
:1003000003188E15031C8E11B5210E12B5210E1681
:10031000B521A50B7E290830A5000310C10D0318D7
:100320008E15031C8E11B5210E12B5210E16B521A6
:10033000A50B8D298E16B521031008007830A40076
:10034000C830A300FA30FD00741408007418B329F3
:10035000FA30FD007414A30BB329C830A300A40B1A
:10036000B32903140800031008000130FD007414C1
:100370007418B8290800A1006430FD0074147418C2
:10038000BF29A10BBC290800081579089100151692
:100390008801080008151108F9008801911108006A
:1003A0006400F100030EF2000808F30088019310C6
:1003B0007418E2219119E62173088800720E8300F7
:1003C00071080900FD0B08007410080008151419C5
:1003D000132A941EF129F51FF429F5141108F900C8
:1003E0001F2A1108F6001F2A1108F90001307906AA
:1003F000031DFC297A14102A02307906031D022AF3
:10040000FA14102A03307906031D082A7A15102AD7
:1004100004307906031D0E2AFA15102AFB17112A3B
:10042000FB13F5171F2A941E182A161F1B2A1D2AB4
:100430001108F600F51775141F2A75151F2A880173
:100440009111080088018501203084008001840A10
:10045000841F262A0800FF308C00FF308E00BF303A
:10046000950040308B009C0101308800DB308C000F
:10047000C7308E0091019201023093000830950040
:10048000093097000F309800F030990018309D0027
:1004900060309E0002308800803096009D019E01F1
:1004A000033088008C018E019D019E01043088007C
:1004B000FF308C00FF308E000A309200FF30930036
:1004C0008030940026309500960197010530880011
:1004D0007F30910092000030930080309400003013
:1004E000950000309600FF309E0007308800FF30F6
:1004F0008C00FF308E0000309C008F309D00AF30AC
:100500009F009E000830880050309600043097000D
:10051000880108000030C000C230C10068210330EB
:10052000C000FF30C10068210430C000FF30C100AE
:1005300068210530C0000030C10068210630C000CD
:100540000030C1006821850148308400A3012308E0
:100550004321410880000130BB21A30A840A04081A
:08056000503A031DA72AA32A4B
:040568000034003427
:020000040001F9
:02000E004C2A7A
:02001000FE3AB6
:00000001FF
