:020000040000FA
:100000000528000000000000BD2B18288207563488
:1000100031342E34333431342034323430343134CA
:1000200036342F34313432342F34313435340034D3
:1000300064008801FA230324972380308A008B17F9
:10004000FA30FC00741474182328081515080811D8
:10005000C0390319352808150F30950508110130EE
:1000600088230815951608112528F51F2528013025
:10007000780603195F280230780603191029033027
:1000800078060319F22A0430780603192E2B05305E
:10009000780603198729063078060319C629FA1746
:1000A000EE30FB008801F501F801081595120811E2
:1000B000FA3088230815951608110C1625280C12FD
:1000C0007A146B23F51869287323031C6228013006
:1000D00051286B230815141A732808117323031C65
:1000E0006A280230512888017708A600033C031CC7
:1000F000C3287030F5052622031C802804305128BF
:100100000C166B23F51B89287323031C82280530EA
:1001100051286B230815141ABD2808117518952845
:100120007323031C8A2806305128A4012930840037
:100130000008F700912375106B230815141ABD28C9
:1001400008117518A8287323031C9D28073051280F
:10015000840AA40A03302406031D98286B23F701A0
:10016000912375100815141ABD2808117518AF28A9
:100170007323031CB2280830512808117A107030FC
:10018000F505F801692B7030F50530308400A601C3
:100190002622031CCD280930512829088000840A12
:1001A0002A088000840A2B088000840AA60A261DDB
:1001B000C8280C166B23F51BE2287323031CDB28CD
:1001C0000A305128303084000008F7006B2375187E
:1001D000F2280815141A0A2908117323031CE728AA
:1001E0000B3051289123840A04083C3A0319FA2859
:1001F0007510E4286B230815141A0A2908117518BC
:1002000006297323031CFB280C305128F701912386
:100210007510FA2808117A107030F505F801692B6D
:10022000FA146B23F51819297323031C12291030B3
:1002300051287708A600033C031C4929F5106B23BD
:10024000F5182B290815141A432908117323031CC8
:10025000202911305128F5107708A8000C12182217
:100260000C16031C3529123051286B230815141A5B
:1002700043290811F51841297323031C362913302B
:100280005128F51035290811FA107030F505F801DC
:10029000692B303084006B23F51857290815141A80
:1002A0006E2908117323031C4C2914305128F510B2
:1002B00077088000840A0408353A031D4B296B2314
:1002C0000815141A6E290811F5186B297323031CDD
:1002D000602915305128F510840A5F290811040897
:1002E000353A03197529163051280C12A601313000
:1002F00084000008A8001822840AA60A261D79296D
:100300000C160811FA107030F505F801692BFA1671
:10031000303084006B23F51896290815141AAD297E
:1003200008117323031C8B2950305128F5107708CE
:100330008000840A0408403A031D8A296B230815AB
:10034000141AAD290811F518AA297323031C9F2933
:1003500051305128F510840A9E2908110408403AAA
:100360000319B429523051280C12FE013030840098
:100370000008FF00A823840AFE0A7E1EB8290C1676
:100380000811FA127030F505F801692B7A166B2303
:100390000815141AD12908117323031CC8294030E9
:1003A000512808110C127030F505FE013030840020
:1003B0009D237F088000FE0A840A7E08103A031DF0
:1003C000D8290C166B23F51BEA297323031CE32998
:1003D00041305128303084000008F7006B23751835
:1003E000FA290815141A122A08117323031CEF297D
:1003F000423051289123840A0408403A0319022A02
:100400007510EC296B230815141A122A0811751897
:100410000E2A7323031C032A43305128F70191232A
:100420007510022A08117A127030F505F801692B4F
:1004300090304922612203180800280849226122CD
:10044000031808008E228223031008009030013820
:1004500049228223612203180800C6220130882322
:1004600057222708A900DC2203117922C62257222D
:100470002708AA00DC2203117922C6225722270866
:10048000AB00DC22031179220C158223A222031077
:100490000800A7008A220830A200A71BA222A71FDB
:1004A000942282237F22A70DA20B4D2A0800A701C8
:1004B0000830A2008422B022A70D8722A20B5A2A5C
:1004C0000800C62282238422FA30A200B022031C34
:1004D000752A8223A20B662ADC220C15A222FF3089
:1004E000A900AA00AB00031408000C11DC220310C1
:1004F00008000319A222031D94227F2208000C1574
:1005000082230C11822308000C15822308000C1191
:1005100082230800942282230C1108009422822353
:100520000C158223A2220800A6189C2A26189A2AB3
:100530000E1108008E1108002618A02A0E120800BD
:100540008E120800A618AA2A2618A82A0E15080036
:100550008E1508002618AE2A0E1608008E16080002
:10056000A618BC2A2618B82A03100E19031408006E
:1005700003108E19031408002618C22A03100E1A3D
:100580000314080003108E1A03140800A618D22AB8
:100590002618CE2A880A0E1588010800880A8E15AA
:1005A000880108002618D82A880A0E168801080033
:1005B000880A8E1688010800A618E82A2618E42A58
:1005C000880A0E1188010800880A8E118801080027
:1005D0002618EE2A880A0E1288010800880A8E1250
:1005E00088010800F5137A156B23F51BFC2A732389
:1005F000031CF52A20305128A1010A08FD00803093
:100600008A0021080620F7007D088A007708031970
:10061000192B6B237518152B0815141A282B081184
:100620007323031C0A2B2130512891237510A10A32
:10063000FD2A6B230815141A282B08117518252B71
:100640007323031C1A2B2230512891237510192B68
:1006500008117A117030F505F801692BF5136B2339
:10066000F51B382B7323031C302BFA15403051280F
:100670007A3084006B237518472B0815141A632BE6
:1006800008117323031C3B2BFA1541305128000835
:10069000F700912380017510840A04087C3A031D39
:1006A0003A2BFF30F7006B230815141A632B08113F
:1006B0007518602B7323031C542BFA1542305128F4
:1006C00091237510532B0811FA01FB017030F505C9
:1006D000F801880125287830A300C830A200FA303C
:1006E000FC00741408007418802BFA30FC00741499
:1006F000A20B802BC830A200A30B802B0314080090
:10070000031008000130FC0074147418852B0800D5
:10071000A0006430FC00741474188C2BA00B892B7F
:1007200008000815770891001516880108000815BB
:100730001108F700880191110800033088007E0835
:1007400091001513951315141308FF008801080074
:10075000033088007E0891007F08930015139513DD
:1007600015158B1355309600AA30960095148B17EB
:1007700015119518B82B880108006400F100030ECC
:10078000F2000808F300880193107418CF23911920
:10079000D32373088800720E830071080900FC0BD4
:1007A00008007410080008151419EB2B941EDE2B9A
:1007B000F51FE12BF5141108F700F72B1108F600CF
:1007C000F72B1108F8007F3078050319FA17031D7D
:1007D000FA13F517F72B941EF02B161FF32BF52B9E
:1007E0001108F600F5177514F72B7515F72B88010E
:1007F0009111080088018501203084008001840A5D
:10080000841FFE2B0800FF308C00FF308E00BF30AD
:10081000950040308B009C0101308800EB308C004B
:10082000C3308E0091019201023093000830950090
:10083000093097000F309800F030990018309D0073
:1008400060309E0002308800803096009D019E013D
:10085000033088008C018E019D019E0104308800C8
:10086000FF308C00FF308E0020309200FF3093006C
:10087000803094002630950096019701053088005D
:100880007F3091009200003093008030940000305F
:10089000950000309600FF309E0007308800FF3042
:1008A0008C00FF308E0000309C008F309D00AF30F8
:1008B0009F009E000830880050309600043097005A
:0408C00088010800A3
:020000040001F9
:02000E00EC3BC9
:02001000FF0AE5
:00000001FF
